:100000000C945E000C9486000C9486000C94860080
:100010000C9486000C9486000C9486000C94860048
:100020000C9486000C9486000C9486000C94860038
:100030000C9486000C9486000C9486000C94860028
:100040000C94A7020C9486000C9417030C94F102F4
:100050000C9486000C9486000C9486000C94860008
:100060000C9486000C9486000000000024002700F9
:100070002A0000000000250028002B0004040404CE
:100080000404040402020202020203030303030342
:10009000010204081020408001020408102001021F
:1000A00004081020000000080002010000030407FB
:1000B00000000000000000004903CA0411241FBE14
:1000C000CFEFD8E0DEBFCDBF21E0AEE1B1E001C0AF
:1000D0001D92AE3CB207E1F711E0A0E0B1E0ECE226
:1000E000FEE002C005900D92AE31B107D9F710E0E5
:1000F000CDE5D0E004C02197FE010E940705CC3574
:10010000D107C9F70E94BF030C9409070C940000A3
:10011000E1EBF0E09491EDE9F0E02491E9E8F0E022
:10012000E491EE2309F43CC0992339F1933091F026
:1001300038F49130A9F0923001F594B59F7D12C04A
:10014000973091F09830A1F09430B9F490918000FC
:100150009F7D03C0909180009F77909380000DC099
:1001600094B59F7794BD09C09091B0009F7703C06C
:100170009091B0009F7D9093B000F0E0EE0FFF1FD4
:10018000EE58FF4FA591B4919FB7F894811104C028
:100190008C912095282302C0EC912E2B2C939FBF8D
:1001A00008953FB7F89480911F0190912001A0918C
:1001B0002101B091220126B5A89B05C02F3F19F05F
:1001C0000196A11DB11D3FBFBA2FA92F982F8827D7
:1001D000820F911DA11DB11DBC01CD0142E0660F32
:1001E000771F881F991F4A95D1F708958F929F9284
:1001F000AF92BF92CF92DF92EF92FF920E94D10016
:100200004B015C0188EEC82E83E0D82EE12CF12C46
:100210000E94D100DC01CB0188199909AA09BB0908
:10022000883E9340A105B10598F321E0C21AD10898
:10023000E108F10888EE880E83E0981EA11CB11C2D
:10024000C114D104E104F10419F7FF90EF90DF909D
:10025000CF90BF90AF909F908F900895CF92DF92F4
:10026000EF92FF920F931F93CF93DF936C017A016C
:100270008B01C0E0D0E0CE15DF0581F0D8016D9193
:100280008D01D601ED91FC910190F081E02DC60128
:100290000995892B11F02196EECF7E01C701DF91E0
:1002A000CF911F910F91FF90EF90DF90CF90089525
:1002B000089580E090E00895FC01538D448D252F32
:1002C00030E0842F90E0821B930B541710F0CF96F0
:1002D000089501970895FC01918D828D981761F022
:1002E000828DDF01A80FB11D5D968C91928D9F5F6D
:1002F0009F73928F90E008958FEF9FEF08952FB72F
:10030000F8948091230190912401A0912501B0914E
:1003100026012FBF80932F0190933001A0933101CC
:10032000B093320187E291E00E946B0197FF26C0F3
:100330002FB7F8948091230190912401A091250179
:10034000B09126012FBF40912F0150913001609153
:10035000310170913201841B950BA60BB70B4091B4
:100360002B0150912C0160912D0170912E01841769
:100370009507A607B707B0F28FEF9FEF0895FC012E
:10038000918D828D981731F0828DE80FF11D858D4A
:1003900090E008958FEF9FEF0895FC01918D228DDD
:1003A000892F90E0805C9F4F821B91098F73992762
:1003B000089587E291E00E94CD0121E0892B09F4A4
:1003C00020E0822F0895FC01848DDF01A80FB11D6C
:1003D000A35ABF4F2C91848D90E001968F7399277B
:1003E000848FA689B7892C93A089B1898C91837059
:1003F00080648C93938D848D981306C00288F38952
:10040000E02D80818F7D80830895EF92FF920F937E
:100410001F93CF93DF93EC0181E0888F9B8D8C8DB0
:10042000981305C0E889F989808185FD26C0F62EDC
:100430000B8D10E00F5F1F4F0F731127E02E8C8D77
:10044000E8120CC00FB607FCFACFE889F989808161
:1004500085FFF5CFCE010E94E301F1CF8B8DFE0128
:10046000E80FF11DE35AFF4FF0829FB7F8940B8F0E
:10047000EA89FB89808180620AC09FB7F894EE897F
:10048000FF896083E889F989808183708064808333
:100490009FBF81E090E0DF91CF911F910F91FF907E
:1004A000EF900895CF93DF93EC01888D8823C9F0F6
:1004B000EA89FB89808185FD05C0A889B9898C916D
:1004C00086FD0FC00FB607FCF5CF808185FFF2CF08
:1004D000A889B9898C9185FFEDCFCE010E94E301F7
:1004E000E7CFDF91CF91089580E090E0892B29F04C
:1004F0000E94D90181110C94000008950E94F40615
:100500000F931F93CF93DF93EC018881998100971C
:1005100029F02A813B812617370788F48B016F5F0A
:100520007F4F0E942E06009761F0998388831B837A
:100530000A832C813D81232B11F4FC01108281E080
:1005400001C080E0DF91CF911F910F9108951F921C
:100550000F920FB60F9211242F933F938F939F9377
:10056000AF93BF938091230190912401A091250125
:10057000B091260130911E0123E0230F2D3720F486
:100580000196A11DB11D05C026E8230F0296A11DED
:10059000B11D20931E018093230190932401A09309
:1005A0002501B093260180911F0190912001A09117
:1005B0002101B09122010196A11DB11D80931F015F
:1005C00090932001A0932101B0932201BF91AF919C
:1005D0009F918F913F912F910F900FBE0F901F9081
:1005E00018951F920F920FB60F9211242F933F93DD
:1005F0004F935F936F937F938F939F93AF93BF932B
:10060000EF93FF9387E291E00E94E301FF91EF9166
:10061000BF91AF919F918F917F916F915F914F911A
:100620003F912F910F900FBE0F901F9018951F9222
:100630000F920FB60F9211242F938F939F93EF93E6
:10064000FF93E0913701F09138018081E0913D0105
:10065000F0913E0182FD12C09081809140018F5F38
:100660008F7320914101821751F0E0914001F0E039
:10067000E95DFE4F958F8093400101C08081FF911D
:10068000EF919F918F912F910F900FBE0F901F9020
:10069000189510922A011092290188EE93E0A0E0AB
:1006A000B0E080932B0190932C01A0932D01B09387
:1006B0002E018AE091E0909328018093270185EC38
:1006C00090E0909334018093330184EC90E0909318
:1006D00036018093350180EC90E09093380180934F
:1006E000370181EC90E090933A018093390182ECDC
:1006F00090E090933C0180933B0186EC90E09093D6
:100700003E0180933D0110924001109241011092F0
:100710004201109243011092C5011092C40110923F
:10072000C7011092C6011092C9011092C80160E081
:1007300070E084EC91E00E9480022091C40130912D
:10074000C501811113C02115310519F0C9010E949D
:10075000A5051092C5011092C4011092C901109212
:10076000C8011092C7011092C60108951092C901E4
:100770001092C8016DE171E0C9010C940207CF939A
:10078000DF93CDB7DEB728970FB6F894DEBF0FBE64
:10079000CDBF789484B5826084BD84B5816084BD0A
:1007A00085B5826085BD85B5816085BD80916E000F
:1007B000816080936E001092810080918100826040
:1007C000809381008091810081608093810080917D
:1007D00080008160809380008091B100846080936C
:1007E000B1008091B00081608093B00080917A0068
:1007F000846080937A0080917A00826080937A008E
:1008000080917A00816080937A0080917A0080687C
:1008100080937A001092C100E0913701F091380185
:1008200082E08083E0913301F09134011082E09105
:100830003501F09136018FEC808310923F01E091F9
:100840003B01F0913C0186E08083E0913901F09119
:100850003A01808180618083E0913901F0913A0111
:10086000808188608083E0913901F0913A01808134
:1008700080688083E0913901F0913A0180818F7D19
:10088000808345E050E068E171E087E291E00E94FA
:100890002E01EDE9F0E02491E9E8F0E0849188236D
:1008A00099F090E0880F991FFC01E859FF4FA5913E
:1008B000B491FC01EE58FF4F859194918FB7F89455
:1008C000EC91E22BEC938FBF81E00E9488000E94A4
:1008D000F60080E00E9488000E94F60087E291E026
:1008E0000E94CD01892B09F452C01A8219821C8200
:1008F0001B821E821D8260E070E0CE0101960E9484
:10090000800229813A8181110DC02115310519F02C
:10091000C9010E94A5051A8219821E821D821C82AD
:100920001B8207C01E821D826DE171E0C9010E9419
:1009300002070E947F0197FD1BC08F8318860D81DF
:100940001E810F5F1F4FB801CE0101960E948002E9
:10095000882379F329813A818D819E81BE01695F67
:100960007F4F820F931F0E9402071E830D83E1CFEA
:100970004D815E8169817A8187E291E00E942E013A
:1009800089819A810E94A50581E00E9488000E94C9
:100990007402A4CF8091C4019091C5010C94A50567
:1009A0002F923F924F925F926F927F928F929F927F
:1009B000AF92BF92CF92DF92EF92FF920F931F936D
:1009C000CF93DF93CDB7DEB7CA1BDB0B0FB6F8941E
:1009D000DEBF0FBECDBF09942A88398848885F845E
:1009E0006E847D848C849B84AA84B984C884DF80CF
:1009F000EE80FD800C811B81AA81B981CE0FD11DB3
:100A00000FB6F894DEBF0FBECDBFED010895EE0F17
:100A1000FF1F0590F491E02D09940F931F93CF933E
:100A2000DF938230910510F482E090E0E091CC01F8
:100A3000F091CD0120E030E0A0E0B0E0309719F176
:100A4000408151810281138148175907C8F08417EA
:100A5000950769F4109731F012960C93129713963C
:100A60001C9327C00093CC011093CD0122C0211507
:100A7000310519F04217530718F49A01BD01EF012F
:100A8000DF01F801DBCF21153105F9F0281B390B07
:100A90002430310580F48A819B816115710521F034
:100AA000FB019383828304C09093CD018093CC019A
:100AB000FE01329644C0FE01E20FF31F8193919331
:100AC00022503109398328833AC02091CA013091DC
:100AD000CB01232B41F4209102013091030130938B
:100AE000CB012093CA012091000130910101211511
:100AF000310541F42DB73EB74091040150910501F5
:100B0000241B350BE091CA01F091CB01E217F307EA
:100B1000A0F42E1B3F0B2817390778F0AC014E5F6D
:100B20005F4F2417350748F04E0F5F1F5093CB01DE
:100B30004093CA018193919302C0E0E0F0E0CF01BD
:100B4000DF91CF911F910F910895CF93DF9300977D
:100B500009F481C0FC01329713821282A091CC016A
:100B6000B091CD01109781F420813181820F931FC4
:100B70002091CA013091CB012817390751F5F09324
:100B8000CB01E093CA0167C0ED0120E030E0CE1751
:100B9000DF0740F44A815B819E0141155105F1F068
:100BA000EA01F5CFD383C28340815181840F951F21
:100BB000C817D90759F488819981840F951F029627
:100BC000918380838A819B81938382832115310560
:100BD00029F4F093CD01E093CC013DC0E901FB8302
:100BE000EA8349915991C40FD51FEC17FD0761F4B1
:100BF00080819181840F951F0296E90199838883F2
:100C0000828193819B838A83E0E0F0E012968D914C
:100C10009C911397009719F0FD01DC01F7CF8D919E
:100C20009C9111979D012E5F3F4F820F931F209142
:100C3000CA013091CB012817390769F4309729F49C
:100C40001092CD011092CC0102C013821282B09397
:100C5000CB01A093CA01DF91CF910895A0E0B0E04D
:100C6000E4E3F6E00C94D404EC01009721F4CB010A
:100C70000E940D05B4C0FC01E60FF71F9C01225035
:100C80003109E217F30708F4A8C0D9010D911C91AE
:100C9000119706171707B0F00530110508F49BC02F
:100CA000C80104978617970708F495C002501109E8
:100CB000061B170B019311936D937C93CF010E9438
:100CC000A50589C05B01A01AB10A4C01800E911ED6
:100CD000A091CC01B091CD01612C712CE12CF12CB3
:100CE000109709F446C08D919C911197A815B905EC
:100CF000B1F56C0142E0C40ED11CCA14DB0478F1DA
:100D00004C018A189B08640142E0C40ED11C129663
:100D1000BC9012971396AC91B5E0CB16D10440F07D
:100D2000B282A38391828082D9016D937C9309C0A2
:100D30000E5F1F4F800F911FF90191838083EB2D70
:100D4000FA2FE114F10431F0D7011396FC93EE93DE
:100D5000129741C0F093CD01E093CC013CC06816DE
:100D6000790608F43C017D0112960D90BC91A02DEE
:100D7000B7CF8091CA019091CB0188169906E1F412
:100D800066167706C8F480910001909101010097E2
:100D900041F48DB79EB74091040150910501841B29
:100DA000950BE817F907C8F4F093CB01E093CA015B
:100DB000F901718360830FC0CB010E940D057C0196
:100DC000009759F0A801BE010E94F906CE010E94C9
:100DD000A505C70104C0CE0102C080E090E0CDB7F8
:100DE000DEB7EEE00C94F00481E090E0F8940C940F
:100DF0000907FB01DC0102C001900D9241505040F7
:100E0000D8F70895FB01DC0101900D920020E1F775
:100E1000089510E0CDE5D0E004C0FE010E94070572
:0C0E20002196CE35D107C9F7F894FFCF1A
:100E2C000000CE0180000000000005022E015C01D4
:0E0E3C005202CD016B01BF0168656C6C6F0046
:00000001FF
